:040000006F00500D30
:1000040000000000000000009E040000A0040000A6
:1000140000000000D2080000000000000000000002
:10002400D2080000D2080000000000000000000018
:10003400D208000000000000D20800000000000008
:10004400D2080000D2080000D2080000000000001E
:10005400D2080000D2080000D2080000D208000034
:10006400D2080000D2080000D2080000D208000024
:10007400D2080000D2080000D2080000D208000014
:10008400D2080000D2080000D2080000D208000004
:10009400D2080000D2080000D2080000D2080000F4
:1000A400D2080000D2080000D2080000D2080000E4
:1000B400D2080000D2080000D2080000D2080000D4
:1000C400D2080000D2080000D2080000D2080000C4
:1000D400D2080000D2080000D2080000000000008E
:1000E400000000000000000000000000000000000C
:0C00F40000000000000000000000000000
:10010000397101436EC619A0397141536AC866CA74
:1001100062CC5ECE19A0397101535AD056D252D456
:100120004ED64AD826DA22DC06DE330161408282CE
:1001300041114AC026C222C406C68282B24D410184
:10014000024D924C224CB24B4101024B924A224A40
:10015000B2494101024992442244B24041018280A5
:100160003D432A876373C3029377F700BDEFADE584
:10017000937606FF3D8ABA960CC34CC30CC74CC796
:100180004107E36BD7FE11E28280B306C3408A06C3
:100190009702000096966780A6002307B700A30683
:1001A000B7002306B700A305B7002305B700A304D3
:1001B000B7002304B700A303B7002303B700A302CB
:1001C000B7002302B700A301B7002301B700A300C3
:1001D000B7002300B700828093F5F50F9396850052
:1001E000D58D93960501D58D61B79396270097021B
:1001F000000096968682E78086FA9680C1171D8F4A
:100200003E96E374C3F8A5B7EFF2FFF041118545C0
:1002100011453714014002C202C402C6EF00D02BC0
:1002200093070040C14905494C00130504803EC2B4
:100230004EC64AC48564EF00B00B938404804C0022
:100240001305048026C24EC64AC4EF00700A130587
:10025000048093050040EF003023A6851305048039
:10026000EF0090224101D5B5EFF29FEC3714014029
:100270001305048093050040EF00102185649385E9
:10028000048013050480EF0030201545EF0070480E
:100290009385048013050480EF00F01F1545EF00DF
:1002A00050474DBDEFF2DFE81545EF00904615458C
:1002B00037140140EF00F04593050040130504801A
:1002C000EF00901C1545EF00D044856493850480B1
:1002D00013050480EF00301C1545EF009043938513
:1002E000048013050480EF00301A1545EF007042BA
:1002F00095B5EFF2FFE34111371401408564914752
:100300009384048005494C00130504803EC626C230
:100310004AC4EF00E07D9305004013050480EF0020
:1003200090171545EF00F03E93050040130504803B
:10033000EF0090151545EF00D03DA685130504800C
:10034000EF00F0131545EF00D03C13050480930532
:100350000040EF005014C1474C00130504803EC616
:1003600026C24AC4EF00C07813050480A685EF00BA
:10037000901201454101F9BBEFF2FFD9371A014054
:100380008569AA84214413090A8093890980930509
:1003900000404A85EF0030101545EF0090379397E5
:1003A0008401E187CE854A8563D00704EF00D00D34
:1003B0001545EF001036930500404A85EF00D00C3C
:1003C0001545EF0010357D14860415451374F40FA0
:1003D00093F4F40FEF00F0335DF89305004013053C
:1003E0000A80EF00500B95B3EF00F00AD1B7EFF29F
:1003F0009FD241119147B714014005693EC613854C
:1004000004808547130909804C004AC23EC4A149B3
:10041000EF00006E0144938404809305004026851C
:10042000EF0070071545EF00D02E1545EF00702E38
:10043000930500402685EF0030051545EF00702D2F
:100440000604CA8526851374F40FEF00500319C102
:1004500013641400FD19154593F9F90FEF00702B83
:10046000E39D09FA371901401305098093050040FF
:10047000EF007002C1478564938404803EC64C003F
:100480008547130509803EC426C2EF006066130548
:100490000980A685EF00407F228541017DB101A042
:1004A000B707EFBE37E700E0938707083CC701A016
:1004B000EFF21FC8AA84056539712E841305858063
:1004C000854532C602D202D402D602D802DA02DC54
:1004D00002DE02CC02CE23100102EF00E07F930780
:1004E00000203ED237150140E1473ED64C108547EB
:1004F000130505C03ED4EF00A05FE084373401400F
:100500002C08130504C0E486231F0100231D0100ED
:10051000EF0050003246C167938707070C18130598
:1005200004C03ED8231BC102231C0102EF00F003CC
:10053000130504C08545EF00F00B130504C0814589
:10054000EF00500E130504C08545EF00100C8545E3
:10055000130504C0EF0090082161EDBEEFF25FBD0E
:1005600079711306000281450808DD3E8545114575
:1005700002C202C402C6EF002076854513050020A2
:10058000EF0080753715014089474C001305058041
:10059000372401403EC202C6A12B13050440752E2C
:1005A00013050440930550020D2BB7070E003ECEF5
:1005B0000C088547130504402302F10202C802CA51
:1005C00002CC02D0752E13050440854529298545A6
:1005D0001305044009214561B5BEEFF27FB537240C
:1005E0000140AA859D460546130504401521854511
:1005F0001305044011219304044089452685C92927
:100600006DDD13050440C921B1B6EFF2DFB02E84D1
:10061000EF306045B757000083A5C7E9EF20301BD6
:10062000A285EF201057B7570000AA852A8903A595
:1006300007EA13048025EF209019B757000083A51F
:1006400047EAEF20507EB757000083A587EAAA89C2
:10065000EF20F017EF30004EEF00B01DB75700004D
:1006600003A607EC83A647ECEF10304CB757000009
:1006700003A687EC83A6C7ECEF00706BB7570000AA
:100680002A86AE8603A507ED83A547EDEF10205D12
:10069000B757000003A687ED83A6C7EDEF206014CF
:1006A000EF300054B757000083A5C7EAAA84EF20B3
:1006B0009045634F0502B757000083A507EB2685D9
:1006C0001304004BEF20D03B6344A002B757000057
:1006D00083A547EB2685EF20D04BB757000083A5B5
:1006E00087EBEF205074EF30A032131405014180E6
:1006F0004A85EF3020442A8637550000AE86130520
:1007000005EEEF30E06B4E85EF30602AAA85375555
:100710000000130505EFEF30A06A2685EF30202991
:10072000AA85375500001305C5EFEF3060693755CE
:100730000000A285130585F0EF308068228531B472
:10074000EFF27F9D4111B922EF00007A1306802558
:1007500085451305004BA93B11357D3471651305A3
:100760000520EF00D001B707002083A50708375503
:100770000000130585F1EF30A064B526AA85375532
:100780000000130585F2EF30A063B757000003A9FE
:1007900047F10144375A0000B7590000F1341305FE
:1007A0009004D93EB936A1312AC6A136E53CB245FE
:1007B00013058AF30504EF30A0600545393DAA848E
:1007C000AA85138549F4EF30A05FCA852685353D9B
:1007D0002A8685451305004BE13913054006EF00D5
:1007E000A076593413058006413E21361305F00FDB
:1007F00061360136453C8D3C1305A006B53ED53C1F
:100800001374F40F22858D3EED34693CB13C130521
:10081000C0069D36F93C1305F00FB93ED93C59345A
:10082000A1341305E006893EE9341305F00FA9361B
:10083000C9348D3C153C130580043D3E5D3C1305D9
:1008400010071D3E7D34B93C13054006EF00C06F14
:10085000B1B7B71702409843B70600F99386F6F58B
:100860001367170098C3D84313670705D8C3D84345
:10087000758FD8C3372702401443F19A14C3144329
:1008800093E6260014C3D8431377F7F0D8C3D843B0
:10089000D8C38280B7160240DC42918313F7F70079
:1008A000B707002093870700BA979C23D442377775
:1008B000DC0293F7F70F130707C093F606083356C9
:1008C000F70099E23356F702B707002023A0C708C4
:1008D000828001A0970100209381C1FA1741002076
:1008E00013014172175500001305059E97F5FF1F70
:1008F000938545711386018263FAC5008322050042
:1009000023A0550011059105E3EAC5FE1385018278
:10091000938501836377B500232005001105E36DFE
:10092000B5FEFD42739002BC8D42739042809302EB
:1009300080087390023097F2FFFF9382E26C93E29B
:10094000320073905230EFF0DFF097020000938294
:1009500062DF7390123473002030B7270140938711
:100960000740631EF500EFF2AFFC8545130500203C
:100970005926814513050020BD2E6FF0AFFD828002
:100980005C413707F1E01307F7EF944D7D8F9C41F1
:10099000D58FD44DD58FD441A206D58FD98F5CC1C8
:1009A0001C4537F7F1FF1307D77FD4457D8F9C494E
:1009B000D58F94458606D58FD98F1CC55C553707D2
:1009C00010FF7D177D8FDC29FD1793F7F70FD207F6
:1009D000D98F5CD582801C4589C593E717001CC55B
:1009E0008280F99BEDBF1C4589C593E707101CC5A4
:1009F000828093F7F7EFE5BF1C4591C5370750009C
:100A0000D98F1CC582803707B0FF7D17F98FD5BFFE
:100A1000A54763F7B7048D47138765FF3307F702D0
:100A20000328C5009D47B397E70093C7F7FFB3F7C7
:100A30000701B396E600DD8E54C5994763E3C7040A
:100A400095477D163306F6025859FD47B397C70000
:100A500093C7F7FFF98F3396C5005D8E50D982801A
:100A60000D473387E502032805019D47B397E7004B
:100A700093C7F7FFB3F70701B396E600DD8E14C9FD
:100A80006DBFB14763E2C702954765163306F602AC
:100A90001859FD47B397C70093C7F7FFF98F3396EF
:100AA000C5005D8E10D9828095474D163306F6023B
:100AB0005855FD47B397C70093C7F7FFF98FB39514
:100AC000C500DD8D4CD5828068454205418182801C
:100AD00008416D8D3335A00082803C4993F707E0D3
:100AE000DD8D2CC98280B7F7FF1F03A54770828078
:100AF0009845937707011378F70081C7DC41336885
:100B0000F8009441814713F6F60F39C21C410146A3
:100B1000854E3D4F930F800293028004214EB3987F
:100B2000CE00B3F516016391B80213132600B31576
:100B30006F0093C5F5FFED8F33136800B367F300C3
:100B40006315F70F232A15010506E31AC6FD1CC11C
:100B50004166130606F0758E49C237F6FF1F03265D
:100B600046701376060F7DE2371601409305068026
:100B70006312B50C83A74180A145854E3D4F930F6D
:100B8000800293028004414E3393BE0033F6660028
:100B90006312C302139625000116B318CF0093C841
:100BA000F8FFB3F7F8003316C800D18F6312F70BC4
:100BB000232A65008505E399C5FD5CC137F6FF1F53
:100BC000032646701376060F09EA3716014093058F
:100BD00006806314B50823A2F180C16763E6F604BA
:100BE000504D8147054E3D4F930F80029302800484
:100BF000A14E93850701B315BE00B3F8B60063910B
:100C000015039398270033131F011343F3FF337623
:100C1000C300B318180133E6C800631CF7054CC9BC
:100C20008507E398D7FD50CD8280E31F57F0232836
:100C3000150119BF930506C06315B50083A7818010
:100C400025BFE31BC5F283A7C1803DB75C412DB72B
:100C5000E31257F623286500B1BF930506C063155C
:100C6000B50023A4F18095BFE319C5F623A6F18052
:100C7000ADB7E31757FAB315FE000CD155B70845C9
:100C80006D8D3335A000828093970501C1831CC907
:100C9000C1810CD182804CC98280B777DC029387F6
:100CA00007C01CC137160240584211839376F700E3
:100CB000370700201307070136971423504293F695
:100CC000F60F1376060833D7D70019E233D7D702C9
:100CD00058C118C558C5828099C5371702401C4FA6
:100CE0005D8D08CF8280B7170240984F1345F5FFFE
:100CF000798D88CF828099C5371702405C475D8D1A
:100D000048C78280B7170240D8471345F5FF798D51
:100D1000C8C782801E2137370140130707C0C207AA
:100D2000C1836306E500370700406316E500BA217A
:100D300093F7F7F8D98FFA2193F7F7CFC207C1835A
:100D4000D98F1EA1DE215EB59E211EB5B7370140A9
:100D5000938707C06306F500B70700406314F500EA
:100D60009C251EB985475EA982801E31922103D839
:100D70002500C207C183F99BC207C1831EB11E3182
:100D800056211A2DC207C183420741831377C7F842
:100D9000518F9225F59BC20633660601D18F3736F7
:100DA0000140130606C0C1826306C5003706004035
:100DB0006310C502B225DD9B03D8E500D18FD22197
:100DC000ED9B93F6F6CFD18FD22533660601D18EF7
:100DD00056A11AADFA215AB91EB182801E2189C5C9
:100DE00093E717001EA18280C207C183F99BC20747
:100DF000C183CDBF8357450491C52167D98F231285
:100E0000F5048280C607C583DDBF1E2189C593E72F
:100E100007081EA18280C207C18393F7F7F7C207B4
:100E2000C183C5BF1E2DC207C183DD9BDD8D0EAD05
:100E30008280EFF2EFAF1629F577FD17F58FF621D7
:100E4000DA250111D58F1EA95625FD779387379F87
:100E5000F58FD6212A842EC6D58F9625D58FB62517
:100E6000D58F5EA55E29C207C18393F7F7CFD98FCF
:100E70005EA908081D35B747014093870780B24532
:100E8000631EF402F2476547B387E7029841930671
:100E900040060A07B3D7E70233D7D702B3F7D70222
:100EA0001207920793872703B3D7D702BD8BD98F39
:100EB000C207C1831EA405616FF0CFA9E247E1B765
:100EC00091C55E250967D98F5EA582805A25F9777D
:100ED000FD17F98FD5BF93F5F51F4EA182800A212A
:100EE0006D8D3335A0008280B707002083A70708E7
:100EF00037177A0013070720B3D7E70293F7F70FE6
:100F00002381F1821307803EB387E7022390F182A9
:100F10008280B7F700E0D8438146799BD8C303C7E6
:100F200021823306A70290CBD4CB984313670701E5
:100F300098C398431367170298C3D843058B75DF8E
:100F40009843799B98C38280B7F700E0D8438146E5
:100F5000799BD8C303D701823306A70290CBD4CBA9
:100F600098431367070198C398431367170298C300
:100F7000D843058B75DF9843799B98C38280EFF245
:100F80002F9B2A841165011185452105B1339307F3
:100F900000403EC23715014085473EC44C00E14742
:100FA000130505C03EC6EFF0BFB422C83744014068
:100FB000B70708000C08130504803ECC02CA231EA4
:100FC0000100853D854513050480DD3D05616FF019
:100FD0006F98EFF24F94B7440140AE8932890144D3
:100FE00093840480634524014A856FF00F9693052E
:100FF00000042685ED3565DDB3878900838507000C
:1010000026850504C205C181F935E9BF1387018131
:101010001C43938601833E95636BD500B756002031
:101020009386068063E5A60008C33E858280FD574F
:10103000EDBF5D71A2C4A6C2CAC052DE56DC86C630
:101040002A84AE8401229387418103A90700FD57BA
:101050002A8AAE8A630DF9062286A6862285A6858F
:10106000EF10106C2DE5014681462285A685EF1014
:10107000E020634EA00497470000938727EF3EC609
:1010800002D422C826CA22CC26CE630C0904974774
:1010900000009387A7EC9843DC43014681462285F4
:1010A000A6853AD03ED2EF10C01651E189473EC422
:1010B000631BF906EF205050930720021CC1A25772
:1010C000B1CFEF20704FA257025A925A1CC1B640BE
:1010D00026445285D68596440649725AE25A616181
:1010E0008280974700009387E7E79843DC430146F7
:1010F00081462285A6853AD03ED2EF10801115C1D7
:1011000085473EC42800192905C917450000130565
:1011100065E339212AD02ED2A257C5F7025A925A36
:101120007DB789473EC42800D52E7DF561B7854738
:101130003EC48947E318F9FCEF20104893071002DA
:101140001CC1E1B75D7186C6A2C4A6C2CAC04EDE8C
:1011500052DC56DA5AD85ED662D466D26AD06ECEE7
:10116000370810002E87AA8663DE051393971500B3
:101170008583C98F6381072C63CB053497470000B3
:101180009387C7DF9043D443EF10201AAE8737060A
:10119000F07FAA862E871305A0FC63DBC7103706F5
:1011A00010001309F6FF37670900B3FC2701130786
:1011B00047F66697718FB6853708F03F974600006F
:1011C000938646D1334807019042D187D442336891
:1011D0009801938717C0AA9751872E85C285330C33
:1011E000F700EF10006093872C00B3F72701094741
:1011F0002A84AE846342F70E01468146EF106001F7
:1012000063060524974700009387C7D89043D443CB
:101210002285A685EF10601197470000938707D8B5
:101220002A86AE868843CC43EF10A05B2A89AE891C
:101230002286A6862285A685EF10200F2A86AE86F6
:101240004A85CE85EF10600E2A89AE89630A0C2686
:101250006285EF10B050974700009387A7D2904364
:10126000D4432A8BAE8BEF10400C97470000938736
:10127000E7D19043D4432A8AAE8A5A85DE85EF109F
:10128000C00A2A86AE864A85CE85EF108055228612
:10129000A686EF1000552A86AE865285D685EF10B9
:1012A000405421A8AE873706F07F0145E3C9C7EE59
:1012B00036853686BA85BA869D2CB6402644964435
:1012C0000649F259625AD25A425BB25B225C925C86
:1012D000025DF24D6161828097470000938787CC61
:1012E0009043D443A9242A86AE862285A685EF00A2
:1012F00010172A8A6285AE8AEF1050465286D6862B
:101300002A8BAE8B5285D685EF10200237F7F9FF76
:10131000130767B866972A86AE863AC62A8DAE8DC1
:10132000EF10A00097470000938747C89043D4432D
:101330002A89AE89EF00707F97470000938787C79F
:101340009043D443ED224A86CE86EF00107E974725
:1013500000009387A7C69043D443D12A4A86CE86FD
:10136000EF00B07C974700009387C7C59043D443F4
:101370007D2A6A86EE86EF00507B974700009387B0
:10138000E7C49043D4432A8DAE8D4A85CE85EF00C5
:10139000D079974700009387E7C39043D443412A0D
:1013A0004A86CE86EF00707897470000938707C380
:1013B0009043D443AD2A4A86CE86EF0010772A8622
:1013C000AE866A85EE85A522B7C7060032479387A9
:1013D0001785B38C9741B3ECEC002A89AE89635A28
:1013E000900B97470000938767BB9043D4432285B7
:1013F000A685EF0090732286A686EF0010732A86DA
:10140000AE862A8DAE8D4A85CE8515225286D68629
:10141000EF00B0712A89AE8963140C0C2A86AE865F
:101420006A85EE85EF10E03B2A86AE862285A6858A
:10143000EF10203B59B5974700009387A7B3884327
:10144000CC4301468146EF00900185BD01458145B1
:10145000E3050CE66285EF10703097470000938734
:1014600067B29043D4432A89AE89EF00106C974746
:1014700000009387A7B19043D4432A84AE844A8561
:10148000CE85EF00906A2A86AE862285A685452005
:101490002DB52A86AE862285A685EF108034528629
:1014A000D686EF0090682A89AE89630B0C009747B7
:1014B0000000938727AD9043D4435A85DE8565B3FA
:1014C0004A86CE862285A685EF10A031FDB32A86F6
:1014D000AE86EF10003101468146EF004078F1BB47
:1014E00097470000938707AA9043D4435A85DE8527
:1014F000EF00B06397470000938747A99043D44318
:101500002A8AAE8A5A85DE85EF0030624A86CE8608
:1015100039282A86AE866A85EE8585BB014582809C
:1015200097470000938707AC8843CC4382803708F5
:10153000100001117D183377B80026CA3378D8001F
:1015400093D4450113D34601131E37004EC61357DB
:10155000D5010E089357D60193F4F47F1373F37FEC
:1015600006CE22CC4AC893D9F50193DEF601336743
:10157000C701131F350033E80701931F3600338E70
:1015800064406380D9196356C0136304031CB70613
:1015900080009307F07F3368D800638FF436930799
:1015A000800363C0C735FD4763CDC74713050002FD
:1015B0003305C541B3D7CF01B316A8003399AF00A7
:1015C000DD8E33392001B357C80133E926011D8F61
:1015D00033092F41B3372F013306F74093178600A5
:1015E00063D40724370780007D173374E600630C4B
:1015F000042C2285EF206075130785FF93070002F6
:10160000998FB357F9003316E400D18F3319E900ED
:101610006341972A33059740130615007D47634DB4
:10162000C73813070002118FB356C9003319E900F8
:101630003397E700558F333920013369270133D6BB
:10164000C70081449377790081CF1377F9009147E0
:101650006308F70013074900333927014A963A898E
:101660009317860063D6071C138514009307F07F39
:10167000CE856304F520B70780FFFD17F18F93989F
:10168000D70113593900A607B3E82801B1831375B0
:10169000F57F9396C7005205F2406244B182FE0581
:1016A000C98ECD8ED2444249B2494685B685056180
:1016B0008280631E0E0A138314001373E37F631783
:1016C0000322B367E701B368F801639D041A6387D7
:1016D0000740638608443309FF41B30707413336A7
:1016E0002F013386C7409317860063D6074C338992
:1016F000EF41B307E84033B62F013386C740F68980
:1017000091B76350C00F6300030CB70680009307C6
:10171000F07F3368D800638AF43A9307800363CB81
:10172000C713FD4763DFC73513090EFE9307000299
:10173000B3562801630AFE00130900043309C941A6
:1017400033192801B3EF2F013339F0013369D90080
:1017500031A2B367F801638A071C9307FEFF638C0D
:1017600007389306F07F6309DE1A3E8E0DBDB30580
:10177000934063910422B367E7016387073293873D
:10178000F5FF638107449306F07F638CD520BE8507
:101790009307800363CCB72AFD4763CFB73C930719
:1017A00000028D8F3319F700B356BF00B317FF0047
:1017B0003369D900B337F0003357B7003369F90004
:1017C0003308E84041ACB367F801638007349307FE
:1017D000FEFF638A07209306F07F6308DE2E3E8EAD
:1017E0002DBF631E0E149386140093F7E67F63915A
:1017F0000734B367E7016395042C6380073EB36742
:10180000F801638E07303309FF01B3070701333F47
:10181000E9013386E7019317860063D70700B7070E
:1018200080FFFD177D8E854493777900E39F07E065
:101830009317D60193583900B3E8F8009357360050
:101840001307F07F638DE404B207B18313F5F47FCF
:10185000CE8581B53369F801333920017A99B337E0
:10186000E9013386E70093178600E3DF07FA850472
:101870009307F07F6396F418CE851305F07F8147B8
:10188000814801BDC1EB6384083A93163600931773
:10189000D8018D82B3E8D700F68993573800B3E7B3
:1018A000F800F9DB81451305F07FB7070800814890
:1018B000CDB3370680FF7D167D8E93777900998CA6
:1018C000E39507D8B5B74A85EF202048130785016F
:1018D000FD47E3D5E7D2130685FFB317C9000149D9
:1018E00005BB3369F80133392001DDB13309FF410C
:1018F0003306074133342F013304864093178400A5
:1019000063CD0724B3688900E39308CE81478149FA
:1019100081441DBFE39808F80E059317D7010D8188
:10192000B3E8A700935737009DBF0E059317D70163
:101930000D81B3E8A700F2849357370011B7330540
:10194000934063820412B70680009307F07F558F9F
:10195000630DF32E9307800363CBA720FD4763C37A
:10196000A72A93070002898F3319F700B356AF00F7
:10197000B317FF003369D900B337F0003357A7001E
:101980003369F9003A987E99B337F9013386070134
:101990009A84D1BDB70680009307F07F558FE31975
:1019A000F3DE931736008D839318D801B3E817013F
:1019B000F68993573800E5B5130715FE9306000224
:1019C00033D7E700630AD600930600043386C64087
:1019D0003396C7003369C900333920013369E90000
:1019E0000146814491B53309FF01B307070133363E
:1019F000E9013E96931786008544E3D707E28944C0
:101A0000B70780FFFD17F18F1357190013791900DD
:101A1000336927019398F70133E9280113D617009A
:101A200015B113090EFE93070002B3562801630A8D
:101A3000FE00130900043309C94133192801B3EF2B
:101A40002F013339F0013369D90059B63369E70101
:101A50003339200133892F41B3B72F013306F840C2
:101A60009A84F689A5BEB367E701638207189307D6
:101A7000F5FF6384071C9306F07F6304D5123E854F
:101A8000D1BD93070002B387C741B316F80033995D
:101A9000FF0033D6CF01D18E33392001B357C801AF
:101AA00033E926013E975DBB931736008D8393186B
:101AB000D801B3E81701AE8493573800F68949B3CB
:101AC000EDC33369F801E31F09DC0E059317D70155
:101AD0000D81B368F50093573700D1B36381080EC9
:101AE000931636009317D8018D82B3E8D700F68994
:101AF0009357380091BB3309FF41B3070741333F88
:101B00002F013386E7418544D1BC0E059317D701D9
:101B10000D81B368F500F2849357370015B30E05B5
:101B20009317D7010D81B3E8A7009357370029BB5E
:101B30009307F07FE382F6D43309FF013336E901DE
:101B4000B3070701B2979398F7011359190033E9C6
:101B5000280113D61700B684C1B93389EF41330782
:101B6000E84033B62F013304C740F68949B43369DE
:101B7000E7013339200101BD938705FE930600027A
:101B8000B357F700638AD50093060004B385B640C7
:101B90003317B700336FEF003339E0013369F900D1
:101BA00055BD931736008D839318D801B3E81701FC
:101BB00093573800EDB1B368C900E39708C6814771
:101BC000814959B13389EF41B307E84033B62F015A
:101BD0003386C740F689854411B4931636009317AF
:101BE000D8018D82B3E8D70093573800B1B9931666
:101BF00036009317D8018D82B3E8D700AA84935793
:101C000038003DB9930705FE93060002B357F7006D
:101C1000630AD500930600043385A6403317A70056
:101C2000336FEF003339E0013369F900A9BB814517
:101C30001305F07FB7070800A9BC3309FF01B307FC
:101C400007013336F9013E9675B3931636009317A4
:101C5000D8018D82B3E8D7009357380089B1397124
:101C600093D7450122DC4AD856D22A891394C5005D
:101C700006DE26DA4ED652D45AD05ECE13F5F77F62
:101C8000318093DAF501630B05109307F07F630B46
:101C9000F514135AD9010E0433648A00370A800000
:101CA000336A4401131B3900930415C00144814B6E
:101CB00013D846011399C6001378F87FB2881359D8
:101CC000C90093D9F601630E08089307F07F6300FB
:101CD000F8041357D6010E0933692701130818C0F9
:101CE000B70780003367F90093183600B3840441C6
:101CF0008145BD4733C83A0163E4871A973700002E
:101D00009387C72E0A043E9410403E96028633679E
:101D1000C90093841480631207101364240081485F
:101D20008945C1BF1306F07F81470147B207F250D2
:101D300062545206B1837E08D18FB3E70701D254B3
:101D40004259B259225A925A025BF24B3A85BE85E9
:101D50002161828001481306F07FB7070800014720
:101D6000F1B73367C9004DC7630809304A8532C4EB
:101D7000EF10B07D2246130755FFF547930685FF08
:101D8000998F3319D900B357F60033E72701B318F9
:101D9000D60026959304353F8145A1BF336A2401BF
:101DA00063030A0636C632C46306042A2285EF108E
:101DB000D0792246B246AA84130755FF754A138B81
:101DC00084FF330AEA4033146401335A4901336A09
:101DD0008A00331B69011305D0C0B3049540014448
:101DE000814BF9B5336A240163180A002144014B81
:101DF0009304F07F894B6DBD228A4A8B3144930452
:101E0000F07F8D4B75B51144014B8144854B4DB529
:101E10001364140081488545E9BD136434004A8782
:101E20008D45C1BD630A052E8547898F93068003C2
:101E300063DDF632014681470147CDBDCE86894735
:101E4000638DF53A8D47E387F5F085473688E38360
:101E5000F5FE1385F43FE357A0FC93F778006396F3
:101E6000072893D638009317770063D80700B70781
:101E700000FFFD177D8F138504409307E07FE3C3C8
:101E8000A7EA1316D70193179700B1833367D600DB
:101E90001376F57F61BDD6865287DA88DE8545B731
:101EA00063614723630DEA20DA86FD145284014BF7
:101EB0009317870013D388013363F300935E030104
:101EC000B357D403131F0301135F0F0193D506010A
:101ED000139E88003374D4033307FF024204C18D7C
:101EE00063FBE5009A951386F7FF63EE652663FCB6
:101EF000E526F9179A95998D33D7D503C206C18285
:101F0000B3F5D5033306EF02C205D58D63FBC500DB
:101F10009A959306F7FF63E6652463F4C524791761
:101F20009A95C20741645D8F9307F4FF3375F700FC
:101F300093580701935F0E01B377FE00B302F502D9
:101F4000B386C540B383F80293D502013386AF024E
:101F50001E962E963385F803637376002295C1682A
:101F6000FD1893550601337616014206B3F81201A7
:101F7000AA95469663E6B6126382B6123306CB4044
:101F80008D8E333BCB00338B66411385F43F630C5E
:101F90006317B358DB0393550601337BDB03B306AA
:101FA0001F03420B33EB6501637BDB001A9B9385B8
:101FB000F8FF636D6B20637BDB20F9181A9B330BF2
:101FC000DB40B356DB0342064182337BDB03330F36
:101FD000DF02420B33666601637BE6011A96938546
:101FE000F6FF6367661E6375E61FF9161A96C20848
:101FF000B3E8D8009395080193D20801C181B38E4C
:10200000F5023306E641B385BF0293D60E01B387CE
:10201000F202BE95AE96B38F5F0263F4F600C1671D
:10202000BE9FC165FD1593D70601ED8EC206B3FEB6
:10203000BE00BE9FF696637FF6091A969387F8FF57
:102040006369661A6368F619630FF61BBE8893E826
:10205000180011B54A85EF10504F13075501F1458F
:10206000930405022246B246E3DAE5D4130485FF61
:10207000331A8900014B85B3328532C4EF10F04C1E
:1020800013075501F146AA87224613050502E3D638
:10209000E6CEE1173317F6008148E5B9E370CBEEE1
:1020A000729B3335CB011A95AA961305F7FF637817
:1020B000D30263E6B6106382D5102A87C1B5E36503
:1020C0001BDF93551B009316FA0113541A00CD8E93
:1020D0007E0BF9BBE31DF6F7E38F06D6B9BFE31E0F
:1020E000D3FCE378CBFD2A8751BD93F7F8009146E6
:1020F000E389D7D693B7C8FF9386480093C71700E4
:102100008D823E978DB381468547E34CA0FEFD58F6
:10211000E31C05D0930410C085471385E441B31632
:10212000A70033D6F8003395A800D18E3335A00030
:10213000C98E13F676003357F70001CE93F7F600F9
:1021400011466388C70093874600B3B6D700369719
:10215000BE869317870063D8070405468147014769
:10216000F1B636877DBBB28779B3FD46E3D7F6FA81
:102170000556098E930600023356C7006388D700C0
:102180009387E443B317F700B3E8F800B3361001C0
:10219000D18E13F67600814701CE93F7F6001146F3
:1021A0000147E392C7FA931797001316D701B1833B
:1021B00013D73600518F014695BEE370CBF0729B6A
:1021C0003335CB011A957917AA964DBBAE88C5BB9E
:1021D000AE8631BD93171E0033BEC70172931A96A7
:1021E000F9183E8EE315F6E7E307DEC693E818001C
:1021F0009DB1BE88E30AF6FF99BD36881306F07FCD
:102200008147014725B6E367DEFCBE88E310DEFEAA
:1022100099B113D74501B7071000FD1713D8460130
:102220001377F77F9308F07F33FEB700AA8EF58F00
:10223000FD81328F1378F87FFD82630B1701054310
:102240006306180163140701630DFE001A8582807E
:10225000B368AE000543E39B08FEE319E8FED18FA7
:10226000F5F70543E394EEFF0143E381D5FE054313
:1022700071FF3365AE003333A000C9BF13D74501EA
:10228000B7071000FD1713D846011377F77F93089F
:10229000F07F33F3B7002A8EF58FFD81B28E13786D
:1022A000F87FFD8263081703630018030DEBB36822
:1022B000A300631408005D8E29CA6385080463883F
:1022C000D502054595ED8280B3E8C700E38008FE9E
:1022D000795582803365A30065FD630CE8026314C1
:1022E00008005D8E79DEE39ED5FCE34CE8FC634894
:1022F0000701E3E867FC6303F302637FF30081E512
:102300007D558280F5DE054582800145E39B08FA14
:1023100082805D8E69DA6DBF01458280E3E3CEFB8A
:102320000145E372DEFBE5F1E1BF39714AD813D90B
:1023300045014ED652D456D29399C50006DE22DC12
:1023400026DA5AD05ECE1379F97F2A8A93D9C9004A
:1023500093DAF501630D090E9307F07F6306F91810
:102360001354D5018E09B36934013704800033E476
:10237000890093143500130919C08149814B13D783
:102380004601139AC6001377F77FB285135ACA0025
:1023900013DBF601630B07109307F07F6303F70469
:1023A0009357D6010E0A33EA4701130717C0B70740
:1023B0008000B367FA00931536003A99814833C715
:1023C0006A01BD463A851308190063E836171736C7
:1023D00000001306A6C58A09B29983A60900B29621
:1023E0008286B367CA001309F97F6399071293E9DC
:1023F000290081458948E1B701479307F07F3704F9
:10240000080081443204D20731807E075D8C598CEC
:10241000A285F250625426854259D254B259225AAA
:10242000925A025BF24B216182805A853E84AE84CF
:10243000C68B8947638DFB0E8D47E38FFBFA85477B
:102440002A87639EFB3881470144814465BF33E49A
:10245000A90061C036C632C4638C092A4E85EF10CC
:10246000D00E2246B246AA87130755FF75449384BF
:1024700087FF198CB399990033548A00336434016F
:10248000B3149A0013D746011309D0C0139AC6009B
:102490001377F77F3309F9408149814BB285135A8D
:1024A000CA0013DBF601E31907EEB367CA00B1C730
:1024B000630F0A22528532C4EF10300922462A8760
:1024C000930655FFF547930587FF958F331ABA009A
:1024D000B357F600B3E74701B315B6003309E94037
:1024E0001309D9C08148E1BD33E4A90001ECA14939
:1024F00081441309F07F894B59B593E9190081454F
:10250000854875BD4E84AA84B1491309F07F8D4B6F
:10251000BDB5914981440149854B95B593E9390091
:10252000D2878D4869BD89475685E397FBF02A8796
:102530009307F07F01448144F1B5C16E1386FEFF1D
:1025400093D6040113DE0501F18CF18D33869502DB
:102550003383B6029358060133059E021A95AA9852
:10256000B382C60363F36800F692C16F1383FFFF63
:1025700033F5670093D30701B3F76800C2073373DD
:1025800066003E933306950293D80801B387A602EE
:10259000135F0601B3849302BE94FA94B38E76025D
:1025A00063F3F400FE9E416A9307FAFF935F040110
:1025B000B376F400B3F9F4007D8EC1803384D50284
:1025C000C209338FD401B299CE98B307DE02935E6D
:1025D0000401B385BF02AE97BE9E330EFE0363F3C4
:1025E000BE00529EC1679385F7FF33F6BE006D8C27
:1025F0004206229693DE0E01B305D502769E338500
:10260000AF0213D40501B386D302AA96A296B38F64
:10261000F30363F3A600BE9F41657D15B3F7A600E3
:10262000C2076D8DAA97B3855800B3B93501FA97E3
:10263000B2953384370133B6C500B30EC401338578
:10264000CE0033343401B3B7E701C18F33BECE01BE
:1026500013D406013336C5003E943366CE009394FE
:10266000950032947E94B3E4640026049356750179
:10267000B3349000DD8193179500CD8C558CDD8CA3
:102680009317740063DB070093D7140085889316B3
:10269000F401DD8CD58C058042899307F93F63599D
:1026A000F00893F6740081CE93F6F4001146638827
:1026B000C60093864400B3B496002694B68493165D
:1026C000740063D80600B70700FFFD177D8C9307E1
:1026D00009409306E07F63CFF60E93D6340093143F
:1026E000D4012604D58C318093F7F77F21BB328546
:1026F00032C4EF10806593065501F14713070502B8
:102700002246E3D1D7DC6115B317A6008145F9B3A2
:10271000EF10A06313075501F14593070502224608
:10272000B246E3D5E5D461153314AA00814499BBC0
:1027300085469D8EB1E71309E941B3972401B3D4CF
:10274000D40033192401B337F000B3649900DD8C51
:1027500093F77400B356D40081CF93F7F400114679
:102760006388C70093874400B3B49700A696BE84DD
:102770009397860063D8070485470144814459B183
:1027800013068003E341D6CC7D46E356D6FA0556C0
:10279000B307F640930500023356F4006387B60092
:1027A0001309E943B3172401DD8CB3349000D18CB5
:1027B00093F67400014499CA93F7F40011468146D8
:1027C000E392C7FA139496003180F6068D80D58C7B
:1027D00081470DB99307F07F0144814425B14289B7
:1027E0006DBD370710007D1701113373B70093D803
:1027F0004601758F935ED60122CC26CA0E0393D470
:1028000045019357D5010E0706CE4AC84EC693F828
:10281000F87F130EF07F33E7EE0093F4F47F13D4C8
:10282000F50133E36700131F3500FD82931E360068
:102830006380C81993C61600B38514416305D4128A
:102840006351B018638B081AB70780005D8F6381EE
:10285000C4599307800363C4B734FD4763C5B748C1
:10286000930700028D8FB3D9BE003318F700B39ED3
:10287000FE00336838013357B700B339D0013368ED
:1028800038013303E340B3090F41B3373F01330647
:10289000F3409317860063D30724370980007D191E
:1028A00033792601630F092C4A85EF10004A13077C
:1028B00085FF93070002998FB3D7F9003316E9001B
:1028C000D18FB399E9006344972A058F1306170047
:1028D000FD4663C5C63A13070002118FB3D6C9007F
:1028E0003398E9003397E700558F33380001B36917
:1028F000070133D6C700814493F7790081CF93F65F
:10290000F90091476388F6009386490033B8360191
:102910004296B6899317860063D6071C1387140066
:102920009307F07F05886306F720B70780FFFD1740
:10293000F18F1398D70193D93900A607336838016E
:10294000B1831377F77F9396C7005207B1827E0455
:10295000D98EC18EF2406244D2444249B249428586
:10296000B685056182806356B00A638A0812B7078C
:1029700080005D8F6387C42D9307800363C7B718FA
:10298000FD4763D2B73C138805FE93070002B35995
:102990000701638AF50093070004B385B740331736
:1029A000B700B3EEEE003338D0013368380195A29A
:1029B000B367D7019385148099E393C61600630A21
:1029C000D404D1E19387140093F7E77F6399071E3E
:1029D000B367E3013368D701639204166382073C4F
:1029E00063160842131835009316D30113583800A4
:1029F00033E806019357330019A2B367D701638503
:102A0000071A9387F5FF638B073A638CC523BE854E
:102A100089B56399051C9386140093F7E67FC1EF8F
:102A2000B367E30163900436638D0744B367D7014E
:102A3000639407460E051318D3010D813368A8006F
:102A4000935733006DA8B385984063970420B3670C
:102A5000E301638D07309387F5FF63890740130512
:102A6000F07F6383A520BE859307800363C2B72AE6
:102A7000FD4763C8B73C930700028D8F3318F300FE
:102A80003356BF00B317FF003368C800B339F000F6
:102A90003353B3003368380133076740B5ACB367CD
:102AA000D701638307109387F5FF638F071E638049
:102AB000C52FBE85D1B59307F07F638BF606FA9ECE
:102AC00033B6EE01B307E300B2971398F70193DE34
:102AD0001E00B369D80113D61700B68493F77900A6
:102AE000E39F07E09317D60113D839003368F80045
:102AF000A685935736001307F07F6380E506B2077B
:102B0000B18313F7F57F05883DBD3367D7013338AF
:102B1000E000B309E801B3B7E90133866700931712
:102B20008600E3DD07FA85049307F07F639CF418C1
:102B300005881307F07F8147014831B5639107107D
:102B40006301083C131836009317D7011358380057
:102B50003368F800368493573700B367F800E9DB31
:102B600001441307F07FB70708000148E9BB3706A7
:102B700080FF7D167D8E93F77900998CE39107D8BD
:102B800095B74E85EF10601C13078501FD47E3D212
:102B9000E7D2130685FFB397C90081492DB3336887
:102BA000D70133380001C5B1131835009317D3018D
:102BB000135838003368F800935733002DBFB3091A
:102BC000DF413309E34033363F013309C9409317EE
:102BD000890063CA072033E82901E31508CC81473F
:102BE000014431BFB385984063810414B706800067
:102BF0009307F07F3363D3006381F820930780034A
:102C000063CCB722FD4763C9B72C930700028D8FB1
:102C10003318F300B356BF00B317FF003368D80072
:102C2000B339F0003353B300336838011A97B3094E
:102C3000D801B3B7D9013386E700C684CDB5E31117
:102C400008F2131835009317D3011358380033686E
:102C5000F8009357330011B7370580009307F07FD2
:102C60003363A300E392F8E00E061318D7010D8238
:102C70003368C800935737003684C5B505179306E7
:102C8000000233D7E700630AD600930600043386B8
:102C9000C6403396C700B3E9C90033383001B36981
:102CA000E800014681441DBDB309DF01B307E3001D
:102CB00033BFE9013386E701931786008544E3DFDC
:102CC00007E08944B70780FFFD17F18F13D719007C
:102CD00013F81900336807019399F701B3E9090163
:102CE00013D6170011B9138805FE93070002B359D4
:102CF0000701638AF50093070004B385B7403317D3
:102D0000B700B3EEEE003338D00133683801A5BE0A
:102D10003363E30133386000B3890E41B3B73E013A
:102D20003306F740C6843684ADB6B367E3016387E4
:102D300007189387F5FF638C071C9306F07F638E5B
:102D4000D50ABE8565BD930700028D8FB3D9BE003D
:102D50003318F700B39EFE00336838013357B700CD
:102D6000B339D001336838013A9365B3131836008C
:102D70009317D7011358380033E807013684935767
:102D8000370095BBBDCB3367D701E31B07DC0E05CE
:102D90001318D3010D813368A8009357330075BB16
:102DA000E30F08E2131836009317D70113583800C1
:102DB0003368F80036849357370091B3B309DF4185
:102DC000B307E340333F3F013386E7418544D1B445
:102DD000131835009316D3011358380033E8060151
:102DE000935733009DBBB389EE413306674033B937
:102DF0003E0133092641368475B40E061318D701F7
:102E00000D823368C8009357370081BBB309DF4197
:102E1000B307E34033363F013386C740931786003C
:102E200063D7070AB389EE41B3076740B3BE3E01DB
:102E30003386D7413684C9B43363E3013338600045
:102E4000FDB3138805FE93070002B3590301638A9B
:102E5000F50093070004B385B7403313B300336F15
:102E60006F003338E001336838017DB5B389EE4136
:102E7000B3076740B3BE3E013386D74136848544ED
:102E800009BC131836009317D7011358380033685C
:102E9000F80093573700A5B1B309DF01B307E3008A
:102EA00033BFE9013386E70193178600E3D807C2F1
:102EB000B70780FFFD177D8E85440DB10E061318F0
:102EC000D7010D823368C800935737002DB133E81E
:102ED000C900E30608D019B1138805FE9307000264
:102EE000B3590301638AF50093070004B385B74023
:102EF0003313B300336F6F003338E00133683801A8
:102F00003DB301441307F07FB70708002DBCB30998
:102F1000DF01B307E300B3BED9013386D70169BB34
:102F200013D74501B7071000FD171347F7FF13D854
:102F30004601FD8DF58F931657011378F87F99CAD6
:102F40001307F07F01456303E8008280D18F33359A
:102F5000F0008280C98D0545E5D58280411106C605
:102F600022C426C20DCD9357F541B3C4A7009D8C52
:102F70002A842685EF00705D9306E041898EA9477B
:102F80007D8093F6F67F63CDA7022D47098FB3D7D7
:102F9000E4005505B207B394A400B18329A001440D
:102FA000814681478144B207D206B1837E04D58F22
:102FB000C18FB24022442685BE8592444101828061
:102FC0005515B397A400B207B1838144E9BF3971A5
:102FD000935775014AD856D25ECE931A950013596D
:102FE000F50106DE22DC26DA4ED652D45AD093F70B
:102FF000F70F93DA9A00CA8B638207121307F00F58
:103000006384E7128E0A37070004B3EAEA00138AE2
:1030100017F80144014B93D775019394950093F7EA
:10302000F70FA58093D9F501FDC71307F00F63874C
:10303000E7028E04938717F837070004D98C330A08
:10304000FA408146558C17270000130727020A040F
:103050003A941C4033493901BA978287130A1AF00F
:10306000F9E88946558C17270000130727040A043E
:103070003A941C4033493901BA97828701491307B2
:10308000F00FB707400013959700F2506254931762
:10309000770125817E095D8D33652501D254425922
:1030A000B259225A925A025BF24B21618280130775
:1030B000F00F8147C9BFA68ACE8B368B8947630B39
:1030C000FB1A8D47E30CFBFA8547630AFB0A1307DB
:1030D000FA0713F91B006357E01293F77A0099C7B8
:1030E00093F7FA0091466383D700910A93974A00B9
:1030F00063D90700B70700F8FD17B3FAFA00130702
:103100000A089307E00FE3C4E7FA93976A00A583E0
:103110001377F70F8DBFB9E48546A9B763940A0208
:103120001144014A054BC5BD63990A002144130AA5
:10313000F00F094BCDB58D4631B73144130AF00F6E
:103140000D4BD1BD56852EC6EF0030409307B5FF1D
:10315000B39AFA009307A0F8338AA7400144014BC1
:10316000B24555BD2685EF00503E1307B5FFB307A6
:10317000AA00B394E400138A67078146E1B513F906
:103180001B000147814701B74166139554007D1626
:1031900093570501698E63FA9A0AB3D5FA027D1A2C
:1031A000D68601473388C502B3F6F602C206558FAC
:1031B000637B07012A979386F5FF6368A70A637606
:1031C000070BF9152A9733070741B356F7023377F0
:1031D000F702B38AC6029317070163FB5701AA9748
:1031E0001387F6FF63E1A70863FF5707F916AA974D
:1031F000C205B38A5741D58DB33A5001B3EA5501A0
:10320000CA8BF1B58546998E11C76D460147814736
:10321000E34BD6E6130AEA09339A4A01B3D7DA0038
:10322000B33A4001B3E7570113F7770019C713F713
:10323000F70091466303D70091071397570063483F
:1032400007029A07A58301473DBD93D61A00B3D55F
:10325000F6021397FA0141833388C502B1B7CE8BCA
:10326000368B814AA1BDBA8661B7B685A9BF05472D
:10327000814711BD13F91B001307F00F814721B5DA
:1032800093567501B7078000FD1713D6750193F6A5
:10329000F60F1308F00FB3F8A7001357F501ED8FE1
:1032A0001376F60FFD8163810603630C06018DE240
:1032B00011E2B1C3638E08026305B70405451DE73B
:1032C0008280F5D779558280E39E08FE6309D60295
:1032D00011E2EDD7E314B7FEE342D6FE63C7C600A2
:1032E000E3EE17FD0145E3FDF8FC01E77D55828023
:1032F000F5DD054582800145E39208FC8280F9DB1B
:10330000D1B78146E1BF93567501B7078000FD171D
:1033100013D6750193F6F60F1308F00FB3F8A70054
:103320001357F501ED8F1376F60FFD8163870603C2
:103330006309060185EA11EA89EB0145639B0800F0
:1033400082800945F5FFE5DA31A8638C0802630045
:10335000B704054575D77D558280094563980802F5
:103360006304D60211E2F5D7E315B7FEE343D6FEB8
:1033700063C7C600E3EF17FD0145E3F3F8FC19E36B
:10338000D9BFF1D905458280E5D38280828081460C
:10339000C5B7797122D4135475014ECE52CC93190E
:1033A000950006D626D24AD056CA5AC81374F40FCE
:1033B00093D99900135AF50169C49307F00F630874
:1033C000F40E9397390037070004B3E9E7001304BC
:1033D00014F88144014B13D77501939A9500137724
:1033E000F70F93DA9A0013D9F50145CF9307F00F41
:1033F000630CF7028E0A130717F8B7070004B3EA45
:10340000FA003A94014633452A01BD47AA8693053E
:10341000140063E2971017270000130727CD8A04D2
:10342000BA949C40BA9782871304F40F63980A0CED
:1034300093E424000946C1BF01451307F00FB70705
:103440004000B2502254A6075E07A5837E05D98F9F
:1034500092540259F249624AD24A424B5D8D45610B
:103460008280CA86D689328B89476301FB0A8D47E1
:10347000E304FBFC854736856312FB1A014781474D
:10348000C9B7639E090413D77501939A9500137702
:10349000F70F91440144054B93DA9A0013D9F501D3
:1034A00031F7639D0A0093E414000546A9BF6393B6
:1034B0000902A1441304F00F094B31BF5685EF00F8
:1034C000D0089307B5FF098CB39AFA001304A4F847
:1034D000014615BFB1441304F00F0D4BEDBD4E85F1
:1034E0002EC6EF0090069307B5FF1304A0F8B3991A
:1034F000F900098C8144014BB245F1BD93E43400DD
:103500000D4611B78947D286E313FBF636851307BC
:10351000F00F81473DB741639306F3FF13D60901CE
:1035200093D80A01B3F7D900B3FADA003388570306
:10353000B389F80213570801B30A5603D6994E9778
:1035400033061603637357011A96C167FD17B376E6
:10355000F7003378F800C206C29693996600935735
:103560000701B3393001E982B2979A07B3E6D9006F
:10357000B3E9D7009397490063D9070013D719001F
:1035800093F71900B369F7002E841307F40763500B
:10359000E00493F7790099C793F7F90091466383A4
:1035A000D70091099397490063D90700B70700F83E
:1035B000FD17B3F9F900130704089307E00F63CB75
:1035C000E70493976900A5831377F70F9DBD85479F
:1035D000B386E74011C76D4601478147E343D6E60E
:1035E0001307E4093397E9003337E000B3D7D90074
:1035F000D98F13F7770019C713F7F70091466303C4
:10360000D700910713975700634C07009A07A583CB
:10361000014705BD1307F00F814725B52E84B5B7C7
:103620000547814739BD3707800041117D17935603
:10363000750113D87501B377A70093F6F60F935E63
:10364000F5013376B70026C24AC01378F80F06C6D4
:1036500022C41303F00F3E8E3689F684139F370081
:10366000FD8113153600B38806416302681093C5C7
:103670001500638CBE106354100D631008106304B2
:10368000051EFD18B307AF40638608029307F00FCD
:103690006388F616ED4763C717291307000233073F
:1036A00017413317E500B35715013337E000D98FC1
:1036B000B307FF40139757006351071A37040004FC
:1036C0007D147D8C228551256D15B317A400634EA2
:1036D000251B330525411304150013070002018F34
:1036E0003397E7003337E000B3D78700D98F01491C
:1036F00013F7770019C713F7F70091466303D70054
:10370000910713975700635E071493061900130778
:10371000F00F93FE14006386E6169A07A58393F6CE
:10372000F60FA607B240224413D59700DE06939702
:10373000FE01558D924402495D8D41018280639264
:10374000080A138716001377E70F631B07146394A7
:10375000062263020F2071D5B307AF4013975700BD
:1037600063550722B307E5410149AE8451B7E30031
:1037700005F0638ABE0AE35410FD9307F00F6381DE
:10378000F608B70700045D8D31B7635E1009630169
:1037900008089307F00F6385F606B70700045D8DF0
:1037A000ED4763C0171F1307000233071741331794
:1037B000E500B35715013337E000D98FFA97139717
:1037C0005700635C070805091307F00F630BE90A4C
:1037D000B706007E13D71700FD16858B758FD98F1E
:1037E00001BF3307D84063950610630D0F147D1792
:1037F0006303071A9307F00F6314F810AE84328E38
:10380000630F0E06814E9306F00FB707400011BFFD
:1038100039C9FD18B307AF00E38308FA9307F00F27
:10382000E390F6F8F1BF639908081389160013773F
:10383000E90F63160712639B061063030F16E3027A
:1038400005EEB307AF001397570001496357070010
:10385000370700FC7D17F98F054913F77700E31C44
:1038600007E813DE37009307F00FE30BF9F893171F
:103870009E00A5839376F90F93FE14005DB593FE29
:1038800014009306F00F814769BD370700FC7D17D0
:10389000F98F13F777003309A940E31E07E4D1B786
:1038A0003304AF409317540063C3070CE31C04E0D8
:1038B000814E81468147B5B53307D840B5C69307D9
:1038C000F00FE30EF8F2B7070004336FFF00ED4787
:1038D00063CDE70C93070002998FB317FF003357AE
:1038E000EF00B337F0005D8FB307A7004289C1BD79
:1038F0009307F00FE304F8F0B7070004336FFF00FD
:10390000ED4763C2E70893070002998FB317FF00E2
:103910003357EF00B337F000D98FB307F540428932
:10392000AE8449BB854769B3630E0F067D17B307A5
:10393000AF004289E30507E89307F00FE319F8F8B1
:10394000328E7DBD328E4289AE8431BFE3090FEAEB
:10395000E30805EA45BD0DCDAE8EB287D9B3930716
:10396000F00FE300F9F2B307AF008583FDB5330430
:10397000E541AE8481BBE31D0FFCE30505E8AE84A1
:10398000BDBD854725BD854749BF0149E39707EC84
:10399000814E814779B3B307E5414289AE8419BBB3
:1039A000B28741B3328E42897DBD054735BF3706A8
:1039B0008000135775019307F6FF1377F70F9305F0
:1039C000E007B3F6A7009357F50163FCE500930504
:1039D000D00963FAE500370500801345F5FF3E95F1
:1039E00082800145828093055009D18E63CDE50028
:1039F000130660093307E64033D7E6003305E0409D
:103A0000F5F33A8582801307A7F63397E600FDB7F2
:103A100013577501370680009307F6FF1377F70FEA
:103A20009305E007B3F6A7009357F501014563F44A
:103A3000E50099C3828082809307E0097D55E3EB1E
:103A4000E7FE93055009B3E7C60063D7E500130707
:103A5000A7F63395E7008280130560093307E54038
:103A600033D5E7008280411106C622C415CD2A84D1
:103A7000E92C9307E0093387A7409307600963C0E7
:103A8000E704A1469377F70F63D5A60061153314B9
:103A9000A40026042580260413559400B240224435
:103AA000DE075D8D41018280014426041355940098
:103AB000B24022448147DE075D8D41018280930739
:103AC000900963DDE7009307B5019546B317F4004D
:103AD000898EB337F0003354D4005D8C954763D69C
:103AE000A7009307B5FF3314F400B70600FCFD16DA
:103AF000937774003376D40085C39377F4009145AF
:103B0000638CB70011069317560063D7070093071D
:103B1000F009758E3387A7401314660025802604AC
:103B200013559400B24022449377F70FDE075D8D62
:103B300041018280135775011377F70F41119307E5
:103B4000170022C426C21314950006C693F7E70F88
:103B500025809354F50185C7935734001307073820
:103B60007604B2075207B1831395F401D98FC98F38
:103B7000B240228522449244BE854101828005EBF9
:103B800039C42285D922A94763C6A7042D47098FC6
:103B9000930755013357E4003314F4009317C7001B
:103BA00013079038098FB1831377F77F5DBF01CC7E
:103BB00013573400B7070800D98FB2077604B183D2
:103BC0001307F07F79BF1307F07F814759BF014783
:103BD000814741BF130755FF3317E40001447DBF00
:103BE00093D645019397C50093F6F67FB18313866C
:103BF00016008E071357D5011376E67FFD815D8F82
:103C00009318350035CE138806C89307E00F63DD9F
:103C100007018147139597009306F00FDE06258173
:103C2000FE05558D4D8D82806355000B9317650001
:103C30000E07B337F000D98F93D8D801B3E7170137
:103C400013F777006301071013F7F700914663033A
:103C5000D7009107370700047D8F75C71307180039
:103C60001306F00F9376F70FE305C7FA9A07A583BB
:103C700013959700DE062581FE05558D4D8D8280BA
:103C8000B367170199EE85CF95479A07A5831395DA
:103C9000970093F6F60FDE062581FE05558D4D8DB6
:103CA0008280A5DBB7074000139597009306F00FBD
:103CB000DE0681452581FE05558D4D8D828081472B
:103CC000139597008146DE062581FE05558D4D8DA5
:103CD0008280A5576348F804F94737068000B38708
:103CE00007417D45598E6351F504795733070741E4
:103CF000130500023357E6006388A700938626CA9F
:103D0000B316D600B3E8D800B3371001D98F13F734
:103D10007700014815FB139757008546E34807F4E1
:103D20008146A5B781468DB7938626C83397D800BC
:103D30003337E000B316D600B3D8F800B367D70026
:103D4000B3E7F800E9B7C28689B7C167637CF502BB
:103D50009307F00F1307000263EBA700971700000B
:103D60009387C73CAA9788233305A7408280218187
:103D7000971700009387873BAA97882361473305ED
:103D8000A7408280B7070001636DF5006181971736
:103D900000009387A739AA97882321473305A740B6
:103DA000828041819717000093874738AA9788231C
:103DB00041473305A7408280938781818843828071
:103DC00039713EDA2ED232D436D63AD842DC46DECB
:103DD0009387818122CC804326CA06CEAA8409C457
:103DE0001C4C99E32285F9200C4454102686228528
:103DF00036C6A526F2406244D24421618280411138
:103E000022C406C62A844EA572A5232005002322BB
:103E10000500232405002322050623280500232A64
:103E20000500232C0500214681451305C505EFC07B
:103E30002FB3971700009387A7985CD097170000BF
:103E40009387C79A1CD4971700009387A79E5CD4CA
:103E500097170000938707A100D01CD8B2402244D6
:103E60004101828097150000938545D4A9A2411194
:103E700026C2130680069384F5FFB384C4024AC0A9
:103E80002E8922C406C693854407592A2A8401CD67
:103E90002320050023222501310508C4138684064A
:103EA0008145EFC0EFAB2285B240224492440249E3
:103EB000410182801C4DADE3411106C622C4970723
:103EC0000000938767FA1CD59387C1819C43232404
:103ED000050423260504232805046314F5008547FB
:103EE0001CCD2A841D2848C02285052808C42285A7
:103EF0002D2048C4484001469145113708440546E5
:103F0000A545F53D48440946C945D53D85471CCCE6
:103F1000B240224441018280828041119387C18155
:103F200026C284434AC006C69C4C22C42A8999E30F
:103F300026854937938484048044DC40FD1763D68A
:103F400007009C40B9CF8440C5BF0317C40039E7C0
:103F5000C1778507232204062320040023220400BE
:103F6000232404005CC423280400232A0400232CF7
:103F70000400214681451305C405EFC06F9E232A26
:103F80000402232C0402232404042326040422858F
:103F9000B2402244924402494101828013048406C3
:103FA00071BF91454A85E13588C051FDB147232055
:103FB000F9000144E9BF797122D44AD052CC56CAE3
:103FC0005AC85EC606D626D24ECE2A8AAE8A1304B8
:103FD00085040149054BFD5B09ECB25022544A852A
:103FE00092540259F249624AD24A424BB24B45615D
:103FF0008280044483294400FD1963D409000040F1
:10400000E1BFDE24637BFB008397E40063877701D5
:10401000A6855285829A3369A90093848406E9BFF4
:10402000011126CA93843500F19806CE22CC4AC8E5
:104030004EC6A104B14763F3F404B14463E2B4048F
:104040002A89EF00704F9387418298433A8439E080
:10405000938781829C4391E781454A851D2F23A444
:10406000A182A6854A853527FD5963193507B147D1
:104070002320F9004A85EF00504C29A0E3D004FC2E
:10408000B1471CC10145F2406244D2444249B249A1
:10409000056182801C40858F63CF0702AD4663F6C1
:1040A000F6001CC03E9404C031A05C40631387023C
:1040B00023A2F1824A85EF0050481305B40093070C
:1040C000440061993307F5405DDF3A94898F1CC045
:1040D0005DBF5CC3C5B72287404095BF1304350060
:1040E0007198E30285FCB305A4404A855D25E31C75
:1040F00035FBB5BF1C46FD171CC663D90700184E1B
:1041000063C5E700A9476393F500B1AF1C422E8554
:104110001387170018C28CA38280011122CC26CAF3
:104120004AC84EC652C406CE2A89AE893284B30428
:10413000D6007D5A63149400014501A80C204E86D8
:104140004A854D3F0504E31745FFF2406244D244DF
:104150004249B249224A05618280357122CD26CB7F
:104160004AC94EC706CF52C556C35AC1DEDEE2DC8D
:10417000E6DAAA89AE843289368409C51C4D99E3F2
:10418000EFF05FD3971700009387470C6398F40C08
:1041900083A44900DE24A18BE5C79C48F5C393079F
:1041A0000002A304F1029307000302D22305F102E7
:1041B00022C6930B5002971A0000938A2A0D054CD1
:1041C000294B4A841C2099C3639E770DB30C24416C
:1041D000638D0C00E6864A86A6854E853D3FFD57D9
:1041E0006301F51E9256E69636D21C20638B071C9F
:1041F000FD571309140002C802CE3ECA02CCA3091F
:10420000010482D48345090015465685EF005031DC
:1042100013041900C24749E913F7070109C7130737
:104220000002A309E10413F7870009C71307B002CE
:10423000A309E104834609001307A002638EE60682
:10424000F2474A8481462546182093051400130737
:1042500007FD6376E60AADCA3ECEBDA09717000003
:104260009387C7006395F40083A4890025B7971747
:1042700000009387A7FBE39FF4F083A4C90019BF54
:10428000A6854E85F92501DD7D55FA406A44DA445C
:104290004A49BA492A4A9A4A0A4BF65B665CD65C96
:1042A0000D618280050439BF330555413315AC00DB
:1042B000C98F3EC82289B9B73247930647001843D1
:1042C00036C6634707023ACE18209307E002631D03
:1042D000F70418309307A002631BF702B2470904E2
:1042E000138747009C433AC663C107023ECA2DA804
:1042F0003307E04093E727003ACE3EC8F1B7B387D3
:10430000670385462E84BA9781B7FD57C5B7050464
:1043100002CA8146814725461820930514001307D9
:1043200007FD6376E606F9F20C200D46171500002E
:10433000130545F6EF00D01E11CD971700009387A7
:1043400067F51D8D93070004B397A7004245050448
:104350005D8D2AC80C201946171500001305C5F3FA
:10436000130914002304B102EF00901B35C197C755
:10437000FFFF938727C995E74247B2471377071096
:1043800009CF91073EC69257D2973ED21DBDB38743
:10439000670385462E84BA9741B79D07E19BA10725
:1043A000D5B7780097060000938666D726860C0856
:1043B0004E8597000000E7000000FD572A8AE314AD
:1043C000F5FCDE2493F70704E39007EC125575BD66
:1043D000780097060000938686D426860C084E85C2
:1043E000012AE1BF797156CA9C49BA8A984522D4FC
:1043F00026D24ECE52CC06D64AD05AC85EC6AA891C
:104400002E84B284368A63D3E700BA879CC0034700
:10441000340419C385079CC01C4093F7070281C769
:104420009C4089079CC00329040013796900631A22
:104430000900130B9401FD5B5C449840998F634C19
:10444000F9041C408346340493F70702B336D000C6
:10445000A5EB13063404D2854E85829AFD5763037B
:10446000F5041C4011469840998B5444814463974D
:10447000C700B384E64063D3040081441C44184859
:104480006354F700998FBE94014969047D5B63987A
:104490002405014509A885465A86D2854E85829A0B
:1044A000631E75017D55B250225492540259F2494F
:1044B000624AD24A424BB24B456182800509ADBF88
:1044C0003307D40013060003A301C70403475404B1
:1044D00093871600A2978906A381E7049DBF8546AE
:1044E0002286D2854E85829AE30E65FB050945B783
:1044F000797122D426D24AD04ECE06D652CC56CA94
:104500005AC8B689942D930790063289AA842E84BE
:1045100013863504638DF60263E2D70693078005A0
:104520006386F61863EDD700638E06209307300488
:10453000638EF60A930A24042301D404C9A09307C6
:1045400030066385F60A93074006E395F6FE1C40A5
:10455000084393F6070893054500C5C61C410CC3E4
:1045600063D807001307D002B307F040A301E404A7
:10457000971600009386C6D2294765A893070007BF
:104580006382F61663E5D7029307E0066389F6189F
:104590009307F006E390F6FA0C401C4313F8050865
:1045A000138547006307080608C39C4385A8930743
:1045B0005007E383F6FE930780076389F61293079B
:1045C0003007E399F6F61C43D041814593864700B6
:1045D00014C383AA07005685A12701C53305554199
:1045E00048C05C401CC8A301040461A81C43930A92
:1045F0002404938647009C4314C32301F404854795
:10460000D5B793F607041C410CC3B9DAC207C187BA
:1046100081BF93F5050408C3C9D99E231307F0068B
:104620006387E60E97160000938686C72947A30185
:1046300004044C400CC463C5050008406D9908C0D3
:1046400099E3B28A89CDB28AB3F5E702FD1AB6952D
:104650008C212380BA00B3D5E70263F0E70CA147B1
:10466000631EF7001C40858B91CB58401C4863C7E4
:10467000E70093070003A38FFAFEFD1A33065641A5
:1046800010C84E87CA867000A2852685EFF09FD598
:104690007D5A631D450B7D55B250225492540259E8
:1046A000F249624AD24A424B45618280A382D504D4
:1046B000971600009386C6BE0C40084313F8050801
:1046C0001C411105630D080208C313F7150001C74B
:1046D00093E505020CC04147B9FB0C4093F5F5FD8D
:1046E0000CC0B1B79C4193E707029CC193078007B8
:1046F000A302F404971600009386C6BB75BF13F897
:10470000050408C3E30308FCC207C1837DBF9716F5
:1047100000009386E6B8214719BFAE8735B79441AC
:104720001C43CC4913F806081385470063060800AC
:1047300008C39C438CC339A008C393F606049C436A
:10474000F5DA8EA323280400B28A25BF14485686C2
:10475000CA8526858299E30045F51C40898B8DE743
:10476000B2474844E35AF5F23E853DB78546568642
:10477000CA8526858299E30065F3050A5C443247C1
:10478000998FE345FAFEE9BF014A930A94017D5BE4
:10479000F5B7411122C42A842E8523A6018206C6BC
:1047A000EFC0DF86FD576317F5009387C1829C43F6
:1047B00091C31CC0B240224441018280411122C4F5
:1047C0002E848395E50006C6212D634905007C48AB
:1047D000AA977CC8B2402244410182805E247D7742
:1047E0007D17F98F5EA4FDB7DE25011122CC26CA04
:1047F0004AC84EC606CE93F70710AA842E84328983
:10480000B68991C78395E5008946014609215E2452
:104810007D777D17F98F5EA48315E4006244F24032
:10482000CE864A86B24942492685D2440561DDA832
:10483000411122C42E848395E50006C6C92EFD577A
:104840005A24631AF500FD77FD17F98F5EA4B24074
:104850002244410182808567D98F5EA468C8C5BFA4
:104860008395E500F5A2011122CC26CA4AC806CEDE
:104870004EC6AA842E89328409C51C4D99E3EFF0F7
:104880006FE3971700009387679C6317F406C04097
:104890001C4C1CC45E24A18BC1C31C48B5CF1C4852
:1048A00008409379F90F1379F90F1D8D5C48634621
:1048B000F500A2852685CD2C25E51C440505FD17B0
:1048C0001CC41C401387170018C0238037015C48A4
:1048D0006388A7005E24858B81CBA9476316F90006
:1048E000A2852685D1240DEDF24062444A85D2444A
:1048F0004249B24905618280971700009387079764
:104900006314F400804469B79717000093870792F7
:10491000E310F4F8C044ADBFA28526851D2841D11F
:104920007D59D9B7411122C42A842E85B285368695
:1049300023A6018206C6EFC0CFE9FD576317F50035
:104940009387C1829C4391C31CC0B2402244410161
:10495000828041119387818126C2844322C44AC048
:1049600006C62A892E8491C49C4C81E72685EFF0E7
:104970006FD4971700009387678D631BF402C040C4
:104980000317C40093170701C18393F68700ADEAAC
:1049900093F6070195EEA5472320F9001367070456
:1049A0005AA47D55B240224492440249410182807A
:1049B000971700009387878B6314F4008044C9B76E
:1049C0009717000093878786E31CF4FAC0444DBF15
:1049D000918B9DC34C5889C9930744046384F500A7
:1049E0004A85A92E232A04025E242322040093F779
:1049F000B7FD5EA41C481CC05E2493E787005EA43C
:104A00001C4899EB5E241307002093F70728638561
:104A1000E700A2854A85AD2C5E2413F717001DC35D
:104A20005C4823240400B307F0401CCC1C4801451B
:104A3000B5FB8317C40013F707082DD793E70704C6
:104A40005EA485B7898B014791E3584818C4F9BF24
:104A5000411122C42A842E8523A6018206C6012183
:104A6000FD576317F5009387C1829C4391C31CC017
:104A7000B240224441018280DE25011122CC26CAA7
:104A800006CE4AC84EC613F78700AA842E8479EB57
:104A9000D841634DE000B841634AE0000145F2406F
:104AA0006244D2444249B2490561828058547DD75C
:104AB00003A904009396370123A0040063DB0606D4
:104AC00070485E24918B99C75C401D8E5C5899C3D9
:104AD0003C401D8E5C540C50814626858297FD57C4
:104AE0005A24631DF5009440F54763E8D706B707DD
:104AF00040208507B3D7D700858BA5C31C48232248
:104B000004001CC09317370163D80700FD576314D6
:104B1000F5009C4091E368C84C5823A02401BDDDFA
:104B2000930744046384F5002685092C232A040294
:104B3000B5B70C500146854626850297FD572A8653
:104B4000E311F5F89C40B5DF75476385E7005947E9
:104B50006393E70423A0240191B7136707045AA4C1
:104B60007D5535BF83A90501E38A09F203A9050034
:104B70008D8B23A0350133093941014791E3D84991
:104B800018C4E35D20F11C540C50CA864E8626855D
:104B900082976347A0005E2493E707045EA4C9B729
:104BA000AA993309A940F1BF9C49A5C3011122CCA0
:104BB00006CE2A8419C51C4D89E72EC6EFF08FAFAB
:104BC000B2459707000093876768639BF5004C40E8
:104BD0008397C50095C722856244F240056169BD8F
:104BE00097070000938787686394F5000C44CDB75E
:104BF0009707000093878763E39CF5FC4C44C9BF8B
:104C0000F240624401450561828001458280411184
:104C100022C42A842E85B285368623A6018206C642
:104C20008D24FD576317F5009387C1829C4391C380
:104C30001CC0B2402244410182801971A6DAAE84C0
:104C40008395E500A2DC86DE328463DB0500DE248A
:104C500023A0060093F707089DE39307004015A0E3
:104C6000300836C66522B246E34305FE7247BD678B
:104C7000F98F7977BA9793B717009CC2F9BF93075A
:104C800000041CC0F6506654D65401450961828068
:104C9000DE25011122CC06CE26CA4AC8898B2E8475
:104CA00089CF930774041CC01CC885475CC8F240B8
:104CB0006244D24442490561828074003000AA8473
:104CC000AD3FA2452A892685EFF08FB519E98317F4
:104CD000C40013F7072061FFF19B93E727005EA450
:104CE000C9B797F7FFFF938727189CD45E2408C0A5
:104CF00008C893E707085EA4A2475CC8B24799CBEF
:104D00008315E4002685052A11C55E24F19B93E7EF
:104D100017005EA45E243369F9002316240141BF05
:104D200093F5F50F2A966314C500014582801C2176
:104D3000E38EB7FE0505C5BF82808280CDC183A703
:104D4000C5FF411122C406C626C21384C5FF63D322
:104D500007003E94AA84CD37938741829C4399EB08
:104D60002322040023A281822244B2402685924459
:104D70004101E1B7637EF40014403307D400639629
:104D8000E7009843DC43369718C05CC0E1BFBA87A0
:104D9000D84319C3E37DE4FE94433386D700631FF1
:104DA00086001040B29694C33386D700E31EC7FA3C
:104DB00010435843B29694C3D8C37DB76375C400FB
:104DC000B1479CC055B71040B306C4006316D70066
:104DD00014435843B29614C058C0C0C371B7828000
:104DE000411122C42A842E85B285368623A60182EB
:104DF00006C67128FD576317F5009387C1829C434F
:104E000091C31CC0B240224441018280411122C49E
:104E10002A842E85B28523A6018206C6B920FD57B5
:104E20006317F5009387C1829C4391C31CC0B240B5
:104E3000224441018280411122C42A842E8523A666
:104E4000018206C60D28FD576317F5009387C182BE
:104E50009C4391C31CC0B24022444101828093070D
:104E6000800523A6F1827D5582809307800523A6C5
:104E7000F1827D5582809307800523A6F18201454A
:104E800082809307800523A6F1827D558280930757
:104E9000800523A6F1827D558280000000F07F45C9
:104EA00000E02B460080094500401C4600004842B7
:104EB0000000A0420000A0410000C8430000000024
:104EC000C7328CAB3171303F83DBB5DCE1796B3FAE
:104ED000000000000000F03F6666666666127140E2
:104EE000555F54656D703A2025660D0A000000007C
:104EF0005274683A2025640D0A00000054656D70F4
:104F00003A2025640D0A000050574D3A20253034D0
:104F1000640D0A003333534053797374656D436CE9
:104F20006B3A25640D0A00004368697049443A25CC
:104F30003038780D0A0000004B45593A25580D0AC3
:104F40000000000054656D705F4144433A202530F5
:104F500034640D0A00000000000000000000F0FFB3
:104F6000000000E0FFFFEFC76C6F6700000000006B
:104F700000000000000050C300000000000050438B
:104F80000000E0FE422EE63F763C7935EF39EA3DFF
:104F9000555555555555D53F000000000000E03FE0
:104FA000000000000000004044523EDF12F1C23F0A
:104FB000DE03CB966446C73F599322942449D23FDF
:104FC000935555555555E53F9FC678D0099AC33F2F
:104FD000AF788E1DC571CC3F04FA97999999D93F46
:104FE000000000000000F87FB8CEFFFF3CCDFFFFBF
:104FF0004CCEFFFF54CEFFFF4CCEFFFF6CCDFFFF2A
:105000004CCEFFFF54CEFFFF3CCDFFFF3CCDFFFF5A
:105010006CCDFFFF54CEFFFFAECEFFFFAECEFFFF45
:10502000AECEFFFF6CCDFFFF12D5FFFF04D4FFFF14
:1050300004D4FFFF02D4FFFF0AD4FFFF0AD4FFFF0E
:10504000D0D3FFFF02D4FFFF0AD4FFFFD0D3FFFF6E
:105050000AD4FFFF02D4FFFFFED4FFFFFED4FFFF00
:10506000FED4FFFFD0D3FFFF20E1FFFF46E0FFFFAC
:105070001AE1FFFF4EE0FFFF1AE1FFFF14E0FFFF20
:105080001AE1FFFF4EE0FFFF46E0FFFF46E0FFFFB3
:1050900014E0FFFF4EE0FFFF54E0FFFF54E0FFFF8E
:1050A00054E0FFFF14E0FFFF06E0FFFF06E0FFFF14
:1050B000DAE0FFFFB6E1FFFFDAE0FFFFD4DFFFFF3A
:1050C000DAE0FFFFB6E1FFFF06E0FFFF06E0FFFFCB
:1050D000D4DFFFFFB6E1FFFF14E0FFFF14E0FFFFA6
:1050E00014E0FFFFD4DFFFFF2EE4FFFF7CE3FFFFB0
:1050F0007CE3FFFF7AE3FFFF80E3FFFF80E3FFFF36
:1051000050E3FFFF7AE3FFFF80E3FFFF50E3FFFF81
:1051100080E3FFFF7AE3FFFF1CE4FFFF1CE4FFFFD7
:105120001CE4FFFF50E3FFFF00010202030303033F
:105130000404040404040404050505050505050527
:105140000505050505050505060606060606060607
:1051500006060606060606060606060606060606EF
:1051600006060606060606060707070707070707D7
:1051700007070707070707070707070707070707BF
:1051800007070707070707070707070707070707AF
:10519000070707070707070707070707070707079F
:1051A0000707070707070707080808080808080887
:1051B000080808080808080808080808080808086F
:1051C000080808080808080808080808080808085F
:1051D000080808080808080808080808080808084F
:1051E000080808080808080808080808080808083F
:1051F000080808080808080808080808080808082F
:10520000080808080808080808080808080808081E
:10521000080808080808080808080808080808080E
:10522000080808080808080800000000000000003E
:10523000000000000000000000000000000000006E
:10524000000000000000000000000000000000005E
:10525000000000000000000000000000000000004E
:10526000000000000000000000000000000000003E
:10527000000000000000000000000000000000002E
:105280000000000000000000232D302B2000000053
:10529000686C4C0065666745464700003031323324
:1052A0003435363738394142434445460000000022
:1052B000303132333435363738396162636465668C
:0452C00000000000EA
:1052C4000102030405060708010203040506070892
:1052D4000102030405060708010203040506070882
:1052E40000000000485200006852000028520000EC
:1052F40000000000000000000000000000000000AA
:105304000000000000000000000000000000000099
:105314000000000000000000000000000000000089
:105324000000000000000000000000000000000079
:105334000000000000000000000000000000000069
:10534400006CDC02444444444444444444444444DF
:10535400B0000020010000002000002020000020F8
:00000001FF
